:020000040800F2
:100000000000032051DF02085BC6020877C6020821
:1000100093C60208AFC60208CBC602080000000063
:10002000000000000000000000000000818A0008BD
:10003000E7C6020800000000F98C000803C70208A8
:10004000A1DF0208A1DF0208A1DF0208A1DF020888
:10005000A1DF0208A1DF0208A1DF0208A1DF020878
:100060007D030008A1030008A1DF0208A1DF020848
:10007000A1DF0208A1DF0208A1DF0208A1DF020858
:10008000A1DF0208A1DF0208A1DF0208A1DF020848
:10009000A1DF0208A1DF0208A1DF0208C5030008F2
:1000A000A1DF0208A1DF0208A1DF0208A1DF020828
:1000B000A1DF0208A1DF0208A1DF0208A1DF020818
:1000C000A1DF0208A1DF0208A1DF0208A1DF020808
:1000D000A1DF0208A1DF0208A1DF0208A1DF0208F8
:1000E000E9030008A1DF0208A1DF0208A1DF02087E
:1000F000A1DF0208A1DF0208A1DF0208A1DF0208D8
:10010000A1DF0208A1DF0208A1DF0208A1DF0208C7
:10011000A1DF0208A1DF0208A1DF0208A1DF0208B7
:10012000A1DF0208A1DF0208A1DF0208A1DF0208A7
:10013000A1DF020817C70208A1DF0208A1DF020839
:10014000A1DF0208A1DF0208A1DF0208A1DF020887
:10015000A1DF0208A1DF0208A1DF0208A1DF020877
:10016000A1DF0208A1DF0208A1DF0208A1DF020867
:10017000A1DF0208A1DF0208A1DF020800000000E1
:10018000A1DF0208A1DF0208A1DF0208A1DF020847
:10019000A1DF0208A1DF0208A1DF0208A1DF020837
:0C01A000A1DF0208A1DF0208A1DF0208B5
:1001C00010B5054C237833B9044B13B10448AFF391
:1001D00000800123237010BDE8090020000000000A
:1001E000F446030808B5034B1BB103490348AFF3BA
:1001F000008008BD00000000EC090020F446030860
:10020000154B002B08BF134B9D46A3F5803A0021E8
:100210008B460F461348144A121A2DF0FDFE0F4B61
:10022000002B00D098470E4B002B00D098470020A1
:10023000002104000D000D48002802D00C482EF0CB
:1002400097F82DF0C5FE2000290000F013F82DF0DE
:10025000AFFE00BF0000080000000000000000002A
:1002600000000000E809002068F1002071E30208A6
:1002700075E7020880B500AF09F058F900F011F8F1
:1002800000F0C6FB01F08AFB03F0C8FC02F0D2FBD1
:1002900002F08AFD01F0F4FA02F00EFA06F0C6FF51
:1002A000FEE780B582B000AF2BF08EFF04202CF06B
:1002B00019F801202CF016F802202CF013F8002376
:1002C0007B602A4B1B6B294A43F004031363274BC3
:1002D0001B6B03F004037B607B68254B9B68244AFF
:1002E00043F480439360224BDB68214A23F0406350
:1002F000D3601F4B1B681E4A23F0406313601B4BE7
:100300005B6C1A4A43F4804353641A4B5B69194A85
:1003100023F0F0035361174B5B69164A43F0200347
:100320005361144B5B69134A23F00F035361124B63
:100330009B68114A43F4005393600F4BDB680E4AED
:1003400023F40053D3600C4B1B680B4A43F4005357
:10035000136000220A2128200BF05FFC28200BF0FC
:1003600078FC00BF0837BD4680BD00BF00380240A2
:100370000008024000380140003C014080B500AF59
:10038000064B5B6903F00403002B05D0032000F04B
:1003900030FB024B04225A6100BF80BD003C01408B
:1003A00080B500AF064B5B6903F00803002B05D056
:1003B000002001F041FA024B08225A6100BF80BDC3
:1003C000003C014080B500AF064B5B6903F02003A1
:1003D000002B05D0012001F02FFA024B20225A6198
:1003E00000BF80BD003C014080B500AF134B5B698E
:1003F00003F48063002B06D0022001F01DFA0F4B9E
:100400004FF480625A610D4B5B6903F40043002B8B
:1004100006D0032001F010FA084B4FF400425A6155
:10042000064B5B6903F40053002B05D003F02FFC4F
:10043000024B4FF400525A6100BF80BD003C0140A6
:1004400080B584B000AF78600023FB607B6803F068
:100450000703002B04D07B6823F0070308337B607D
:1004600006F044FF164B1B68002B05D1154B23F0FB
:1004700007031A46124B1A60134B1A687B68134421
:100480004DF6F732934213D80F4B1A687B681A4423
:100490000D4B1B689A420BD9094B1A680A4B1B6813
:1004A0001344FB60084B1A687B681344064A1360C8
:1004B00006F02AFFFB6818461037BD4680BD00BF16
:1004C00008E600200C0A002004E6002080B485B075
:1004D00000AF78607B68002B0AD04FF0500383F3A5
:1004E0001188BFF36F8FBFF34F8FFB6000BFFEE734
:1004F00000BF1437BD465DF8047B704780B400AF81
:10050000034B00221A6000BFBD465DF8047B7047B4
:1005100004E6002080B400AF044B1B68C3F55B43C6
:10052000F8331846BD465DF8047B704704E60020AA
:1005300080B586B000AF4FF0500383F31188BFF34E
:100540006F8FBFF34F8FBB6000BF2BF03DFE0420C9
:100550002BF0C8FE01202BF0C5FE02202BF0C2FEBE
:100560000023FB60FB6883F3118800BF00237B60DE
:100570004F4B1B6B4E4A43F0020313634C4B1B6BF8
:1005800003F002037B607B684A4B5B6A23F0FF0346
:10059000484A43F044035362464B1B6823F4BE03AE
:1005A000444A43F4B4031360424B424A9B6893604D
:1005B000404B5B683F4A43F4407353603D4BDB68FC
:1005C00023F470233B4A43F4A023D36000233B6011
:1005D000374B1B6C364A43F400131364344B1B6CCB
:1005E00003F400133B603B68334B1B68324A23F033
:1005F000010313601BF06AFC78617B692F4AA2FB40
:1006000003239B0C3B612C4B5B6823F03F022A4980
:100610003B6913434B60284B1B6A23F03F023B6945
:100620000133254913430B62234BDB6923F44F430A
:1006300023F0FF037A69013A92092149A1FB0212D2
:100640009209511C40F6FC720A40002A0AD07A69CD
:10065000013A92091A49A1FB021292090132C2F32E
:100660000B0200E0042214491343CB61124B1B68B8
:10067000114A23F0C00313600F4B9B6823F44343DC
:1006800023F0FF030C4A43F4804393600A4BDB687A
:10069000094A23F0FF03D360074B1B68064A43F067
:1006A0000103136008F0C6FD00BF1837BD4680BDCA
:1006B00000380240000402400054004083DE1B4327
:1006C000632D3E0580B500AF00F00CF800F092F805
:1006D00000F018F9024B00221A7000BF80BD00BF65
:1006E00034F0002080B582B000AF3C4B40F2FF7286
:1006F0001A6000237B603A4B1B6B394A43F00103BD
:100700001363374B1B6B03F001037B607B68354B36
:100710001B68344A43F0C0031360324B9B68314A74
:1007200023F0C00393602F4B9B682E4A43F0800355
:1007300093602C4BDB682B4A23F0C003D36000236B
:100740003B60274B5B6C264A43F480735364244B15
:100750005B6C03F480733B603B68234B234A1A6055
:10076000214B00225A60204B00229A601E4B00222F
:100770001A611D4B00221A761B4B002283F82020A1
:10078000194B00225A62184B0022DA62164B0022E3
:100790009A62154B0022DA60134B0122DA61124B88
:1007A000002283F83020104B00225A610E4809F0D5
:1007B000B7F80F4B03221A600D4B01225A600C4B05
:1007C00000229A600A4B0022DA600949064809F0C3
:1007D000C0FE00BF0837BD4680BD00BF54E9002001
:1007E000003802400000024054EB0020002001408D
:1007F000F8EF002080B582B000AF3C4B40F2FF72B2
:100800001A6000237B603A4B1B6B394A43F00403A8
:100810001363374B1B6B03F004037B607B68354B22
:100820001B68344A43F003031360324B9B68314A20
:1008300023F0030393602F4B9B682E4A43F002037F
:1008400093602C4BDB682B4A23F00303D360002317
:100850003B60274B5B6C264A43F400735364244B84
:100860005B6C03F400733B603B68234B234A1A60C4
:10087000214B00225A60204B00229A601E4B00221E
:100880001A611D4B00221A761B4B002283F8202090
:10089000194B00225A62184B0022DA62164B0022D2
:1008A0009A62154B0022DA60134B0122DA61124B77
:1008B000002283F83020104B00225A610E4809F0C4
:1008C0002FF80F4B0A221A600D4B01225A600C4B75
:1008D00000229A600A4B0022DA600949064809F0B2
:1008E00038FE00BF0837BD4680BD00BF28EE00209F
:1008F00000380240000802409CEB0020002101402B
:1009000020F0002080B582B000AF00237B602A4B2E
:100910001B6B294A43F004031363274B1B6B03F043
:1009200004037B607B68254B9B68244A43F00803E3
:100930009360224BDB68214A23F03003D3601F4BC6
:100940001B681E4A23F0300313601B4B5B6C1A4A72
:1009500043F4804353641A4B9B68194A23F4706331
:100960009360174B9B68164A43F400739360144BD3
:100970009B68134A23F00F039360124B9B68114A44
:1009800043F0040393600F4BDB680E4A23F004032B
:10099000D3600C4B1B680B4A43F004031360002226
:1009A0000A2108200BF039F908200BF052F900BF9A
:1009B0000837BD4680BD00BF003802400008024035
:1009C00000380140003C014080B582B000AF0023F8
:1009D000FB71022000F06EF80346002B04D00220C9
:1009E00000F08CF80123FB71FB7918460837BD46EF
:1009F00080BD80B582B000AF78607B68032B02D1E8
:100A0000022000F02DF800BF0837BD4680BD00BFB2
:100A100080B582B000AF00237B6013E00D4A7B6895
:100A2000002142F8231008F01BFE02460A497B68A9
:100A300041F82320094A7B68322142F823107B6861
:100A400001337B607B68072BE8DD00BF00BF083700
:100A5000BD4680BD58F0002038F0002078F000201E
:100A600080B584B000AF0346FB7108F0F9FDF86073
:100A7000FB79184600F030F8B860FA68BB68D21A03
:100A8000FB790A4951F823309A4207D9FB79084A81
:100A900052F823200132064941F82320FB791846F9
:100AA00000F03EF800BF1037BD4680BD78F0002052
:100AB00058F0002080B483B000AF0346FB71FB798F
:100AC000044A52F8233018460C37BD465DF8047BC3
:100AD000704700BF58F0002080B483B000AF0346D9
:100AE000FB71FB79044A52F8233018460C37BD4697
:100AF0005DF8047B704700BF38F0002080B483B0FD
:100B000000AF0346FB71FB79044A002142F8231031
:100B100000BF0C37BD465DF8047B704758F00020DD
:100B200090B583B000AF0346FB71FC7908F098FDE7
:100B30000346034A42F8243000BF0C37BD4690BD3F
:100B400038F0002080B483B000AF03463960FB71F9
:100B5000FB793A68044941F8232000BF0C37BD46B1
:100B60005DF8047B704700BF78F0002080B584B04A
:100B700000AF2BF029FB02202BF0B4FB0023FB601D
:100B8000984B1B6B974A43F004031363954B1B6B05
:100B900003F00403FB60FB680023BB60914B1B6BFD
:100BA000904A43F0020313638E4B1B6B03F0020366
:100BB000BB60BB6800237B608A4B1B6B894A43F098
:100BC00001031363874B1B6B03F001037B607B689E
:100BD000854B1B68844A23F440531360824B1B6887
:100BE000814A43F4805313607F4B9B687E4A23F411
:100BF000405393607C4B9B687B4A43F40053936063
:100C0000794B5B68784A23F040035360774B1B684D
:100C1000764A23F040431360744B1B68734A43F0D9
:100C200080431360714B9B68704A23F0404393608C
:100C30006E4B9B686D4A43F0004393606B4B5B685F
:100C40006A4A23F400435360684B1B68674A23F0E9
:100C500040631360654B1B68644A43F08063136014
:100C6000624B9B68614A23F0406393605F4B9B68D3
:100C70005E4A43F0006393605C4B5B685B4A23F41D
:100C800000535360594B1B68584A23F0407313605C
:100C9000564B1B68554A43F080731360534B9B6857
:100CA000524A23F040739360504B9B684F4A43F085
:100CB000007393604D4B5B684C4A23F48053536040
:100CC0004B4B1B684A4A23F040431360484B1B6858
:100CD000474A43F080431360454B9B68444A23F0E6
:100CE00040439360424B9B68414A43F0004393600A
:100CF0003F4B5B683E4A23F4004353603A4B1B680A
:100D0000394A23F440431360374B1B68364A43F497
:100D100080431360344B9B68334A23F44043936011
:100D2000314B9B68304A43F4004393602E4B5B6821
:100D30002D4A23F0800353602C4B1B682B4A23F46D
:100D400040631360294B1B68284A43F48063136097
:100D5000264B9B68254A23F440639360234B9B6892
:100D6000224A43F400639360204B5B681F4A23F0E0
:100D7000200353601D4B1B681C4A23F0C003136003
:100D80001A4B1B68194A43F040031360174B9B68CA
:100D9000164A23F0C0039360144B9B68134A43F038
:100DA00080039360114B5B68104A23F00803536083
:100DB0000F4B1B680E4A23F4407313600C4B1B68E7
:100DC0000B4A43F480731360094B9B68084A23F471
:100DD00040739360064B9B68054A43F4007393602D
:100DE00008E000BF00380240000802400004024052
:100DF00000000240134B5B68124A23F0100353605B
:100E0000114B1B68104A23F4407313600E4B1B6890
:100E10000D4A43F4807313600B4B9B680A4A23F41A
:100E200040739360084B9B68074A43F400739360D8
:100E3000054B5B68044A23F01003536000BF103772
:100E4000BD4680BD000002400004024080B483B073
:100E500000AF0346FB80FB8803F00203002B06D0A3
:100E6000124B5B69114A43F04003536105E00F4B9D
:100E70005B690E4A23F040035361FB8803F00103D2
:100E8000002B06D00A4B5B69094A43F400435361C7
:100E900005E0074B5B69064A23F40043536100BF3A
:100EA0000C37BD465DF8047B704700BF0008024068
:100EB0000004024080B483B000AF0346FB80FB888F
:100EC00003F08003002B06D0484B5B69474A43F48C
:100ED0000053536105E0454B5B69444A23F40053DA
:100EE0005361FB8803F04003002B06D03F4B5B6946
:100EF0003E4A43F48053536105E03C4B5B693B4AF7
:100F000023F480535361FB8803F02003002B06D0A9
:100F1000374B5B69364A43F40043536105E0344B79
:100F20005B69334A23F400435361FB8803F01003E9
:100F3000002B06D02F4B5B692E4A43F08003536190
:100F400005E02C4B5B692B4A23F080035361FB883F
:100F500003F00803002B06D0244B5B69234A43F0BF
:100F60002003536105E0214B5B69204A23F02003F5
:100F70005361FB8803F00403002B06D01B4B5B6915
:100F80001A4A43F00803536105E0184B5B69174A9E
:100F900023F008035361FB8803F00203002B06D003
:100FA000134B5B69124A43F01003536105E0104B89
:100FB0005B690F4A23F010035361FB8803F00103C0
:100FC000002B06D0094B5B69084A43F010035361BC
:100FD00005E0064B5B69054A23F01003536100BF2F
:100FE0000C37BD465DF8047B704700BF000402402B
:100FF000000002400008024080B483B000AF034606
:10100000FB71FB7903F00803002B06D0244B5B69CE
:10101000234A43F02003536105E0214B5B69204ADA
:1010200023F020035361FB7903F00403002B06D067
:101030001B4B5B691A4A43F00803536105E0184BE8
:101040005B69174A23F008035361FB7903F002033D
:10105000002B06D0134B5B69124A43F01003536117
:1010600005E0104B5B690F4A23F010035361FB79D5
:1010700003F00103002B06D0094B5B69084A43F0DB
:101080001003536105E0064B5B69054A23F010032A
:10109000536100BF0C37BD465DF8047B704700BF4D
:1010A000000402400000024080B500AF034B002264
:1010B0001A7000F049F800BF80BD00BF10EC00209E
:1010C00080B500AF00F0C6FA03461A461C4B1A70F2
:1010D0001C4B1B78002B06D11A4B01221A700020E2
:1010E00000F0DEF92AE0174B1B78012B06D1154BD7
:1010F00002221A70012000F0D3F91FE0114B1B7877
:10110000022B06D10F4B03221A70022000F0C8F9FF
:1011100014E00C4B1B78032B06D10A4B04221A70E7
:10112000032000F0BDF909E0064B1B78042B05D124
:10113000044B01221A70002000F0B2F900BF80BDFC
:10114000F9EB002010EC002080B584B000AF002344
:10115000FB60984B1B6B974A43F020031363954B3E
:101160001B6B03F02003FB60FB680023BB60914B0B
:101170001B6B904A43F0100313638E4B1B6B03F001
:101180001003BB60BB688C4B9B688B4A43F40053D5
:101190009360894BDB68884A23F04073D360864BA9
:1011A0001B68854A23F040731360834B1B68824A97
:1011B00043F080731360804B5B687F4A23F4805355
:1011C00053607D4B9B687C4A43F4804393607A4B29
:1011D000DB68794A23F04063D360774B1B68764A1B
:1011E00023F040631360744B1B68734A43F08063C1
:1011F0001360714B5B68704A23F4005353606E4B6D
:101200009B686D4A43F4004393606B4BDB686A4A0A
:1012100023F04053D360684B1B68674A23F0405368
:101220001360654B1B68644A43F080531360624B44
:101230005B68614A23F480435360604B9B685F4A5C
:1012400043F4804393605D4BDB685C4A23F040636A
:10125000D3605A4B1B68594A23F040631360574BC5
:101260001B68564A43F080631360544B5B68534AD3
:1012700023F40053536000237B604E4B1B6B4D4A9D
:1012800043F0200313634B4B1B6B03F020037B6085
:101290007B68494B9B68484A43F010039360464B78
:1012A000DB68454A23F0C003D360434B1B68424AC6
:1012B00023F0C0031360404B9B683F4A43F0400358
:1012C00093603D4BDB683C4A23F44063D3603A4B68
:1012D0001B68394A23F440631360374B9B68364AD6
:1012E00043F400639360344BDB68334A23F44013C8
:1012F000D360314B1B68304A23F4401313602E4BEC
:101300009B682D4A43F4803393602B4BDB682A4A59
:1013100023F04043D360284B1B68274A23F0404307
:101320001360244B5B6C234A43F480435364244B87
:101330009B68234A23F470439360214B9B68204AA7
:1013400043F4A04393601E4B9B681D4A23F00F0398
:1013500093601B4BDB681A4A23F0F003D360184BF1
:10136000DB68174A43F05003D360154BDB68144A1F
:1013700023F00F03D360124B1B69114A23F47063EF
:1013800013610F4B1B690E4A43F4A06313610C4BAE
:101390001B690B4A23F00F031361094B5B69084A71
:1013A00023F470435361064B5B69054A43F4A04341
:1013B000536107E000380240001402400010024070
:1013C00000380140344B5B69334A23F00F0353610B
:1013D000324B9B68314A23F0080393602F4BDB6844
:1013E0002E4A43F00803D3602C4B9B682B4A23F012
:1013F00020039360294BDB68284A43F02003D36025
:10140000264B9B68254A23F480639360234BDB685B
:10141000224A43F48063D360204B9B681F4A23F425
:10142000004393601D4BDB681C4A43F40043D360C8
:101430001A4B1B68194A43F008031360174B1B68CB
:10144000164A43F020031360144B1B68134A43F4FD
:1014500080631360114B1B68104A43F40043136010
:1014600000220A2109200AF0D8FB09200AF0F1FB2A
:1014700001220A2117200AF0D0FB17200AF0E9FB0D
:1014800002220A2128200AF0C8FB28200AF0E1FBEA
:1014900000BF1037BD4680BD00380140003C014010
:1014A00080B483B000AF0346FB71FB79002B18D1E9
:1014B000384B5B69374A23F400535361364B5B6901
:1014C000354A43F480435361334B5B69324A43F4FA
:1014D00000535361304B5B692F4A43F4805353618F
:1014E00052E0FB79012B18D12A4B5B69294A43F45E
:1014F00000535361284B5B69274A23F480435361AF
:10150000254B5B69244A43F400535361224B5B69CA
:10151000214A43F48053536136E0FB79022B18D102
:101520001C4B5B691B4A43F4005353611A4B5B69C4
:10153000194A43F480435361174B5B69164A23F4FD
:1015400000535361144B5B69134A43F48053536156
:101550001AE0FB79032B17D10E4B5B690D4A43F45C
:10156000005353610C4B5B690B4A43F48043536156
:10157000094B5B69084A43F400535361064B5B69AE
:10158000054A23F48053536100BF0C37BD465DF814
:10159000047B7047001002400014024080B582B006
:1015A00000AF0023FB710320FFF784FA0346002BF2
:1015B00004D00320FFF7A2FA0123FB710420FFF7F8
:1015C00079FA0346002B04D00420FFF797FA022390
:1015D000FB710520FFF76EFA0346002B04D00520AF
:1015E000FFF78CFA0423FB710620FFF763FA03462A
:1015F000002B04D00620FFF781FA0823FB71FB794A
:10160000002B03D1074B00221A6005E0054B012295
:101610001A60054AFB791370034B1B78184608378C
:10162000BD4680BD18EC00200CE6002080B400AF61
:10163000074B1B68012B04D1054B00221A600123C4
:1016400000E000231846BD465DF8047B704700BFEC
:1016500018EC002080B582B000AF0023FB71FFF7CB
:101660009DFF0346BB71BB7903F00103002B02D041
:101670000023FB7116E0BB7903F00203002B02D0BC
:101680000423FB710EE0BB7903F00403002B02D0AE
:101690000823FB7106E0BB7903F00803002B01D09F
:1016A0000C23FB71114B1B78012B01D1FB7918E046
:1016B0000E4B1B78022B03D1FB790133DBB210E018
:1016C0000A4B1B78032B03D1FB790233DBB208E012
:1016D000064B1B78042B03D1FB790333DBB200E00C
:1016E000002318460837BD4680BD00BF10EC00201F
:1016F00080B582B000AFFFF7ADFF0346FB71FB7909
:101700000F2B43D801A252F823F000BF4D17000859
:101710005117000855170008591700085D170008F1
:101720006117000865170008691700086D170008A1
:101730007117000875170008791700087D17000851
:1017400081170008851700088917000831231DE05C
:1017500032231BE0332319E0412317E0342315E043
:10176000352313E0362311E042230FE037230DE049
:1017700038230BE0392309E0432307E0302305E059
:10178000462303E0452301E04423FFE718460837DA
:10179000BD4680BD80B582B000AFFFF75BFF03465A
:1017A000FB71FB790F2B43D801A252F823F000BF45
:1017B000F1170008F5170008F9170008FD170008D1
:1017C0000118000805180008091800080D1800087D
:1017D0001118000815180008191800081D1800082D
:1017E0002118000825180008291800082D180008DD
:1017F00001231DE002231BE0032319E00A2317E065
:10180000042315E0052313E0062311E00B230FE06A
:1018100007230DE008230BE0092309E00C2307E070
:10182000002305E00F2303E00E2301E00D23FFE773
:1018300018460837BD4680BD80B582B000AF7860DD
:101840007B68002B03D10320FFF70AF913E07B68C4
:10185000012B03D10420FFF703F90CE07B68022B76
:1018600003D10520FFF7FCF805E07B68032B02D1CC
:101870000620FFF7F5F800BF0837BD4680BD00BF62
:1018800080B582B002AF074B1B680193042300931D
:1018900000234FF480720449044804F05DFF00BF48
:1018A000BD4680BD98F0002010470308B11800081D
:1018B00080B500AFFEF706FF2E4B1B78012B54D1ED
:1018C0000220FFF7F7F80346002B04D00220FFF7B1
:1018D00015F901F0E1F9284808F0ABF800BF0A213A
:1018E000254808F09EF90346002BF8D1234BDB6C0A
:1018F000234A1360234808F09CF800BF0A212148BE
:1019000008F08FF90346002BF8D11F4BDB6C1F4A00
:1019100013601B4B1B68B3F5006F06D21C4B0122F2
:101920001A701C4B00221A7005E0194B00221A7025
:10193000184B01221A70154B1B6840F25452934207
:1019400004D8154B4FF4FA721A600EE00F4B1B6867
:1019500040F6A922934204D80F4B4FF4FA621A6062
:1019600003E00D4B42F210721A60642005F040F95A
:10197000A2E700BF34F0002054EB0020002001401B
:1019800054E900209CEB00200021014028EE0020BB
:1019900050EB00202CEE0020F4EF002080B582B048
:1019A00002AF0C4B01930423009300234FF4807289
:1019B00009490A4804F0D0FE094B0193042300931F
:1019C00000234FF480720749074804F0C5FE00BFAA
:1019D000BD4680BD1CF000201C470308711F000895
:1019E00020EB002028470308BD1F000880B483B007
:1019F00000AF5B4B01221A7000237B60A2E0002342
:101A00003B6098E057497A6813461B019B1ACA1835
:101A10003B68134400221A7053497A6813461B012D
:101A20009B1ACA183B68134400221A707B68032B68
:101A300016D13B68032B13D14A497A6813461B0120
:101A40009B1ACA183B68134401221A7046497A68E7
:101A500013461B019B1ACA183B68134401221A70D3
:101A60007B68052B16D13B68032B13D13D497A685F
:101A700013461B019B1ACA183B68134401221A70B3
:101A800039497A6813461B019B1ACA183B681344EC
:101A900001221A707B68042B16D13B68042B13D1EA
:101AA00030497A6813461B019B1ACA183B681344D5
:101AB00001221A702C497A6813461B019B1ACA1816
:101AC0003B68134401221A707B68042B16D13B68D3
:101AD000052B13D123497A6813461B019B1ACA1898
:101AE0003B68134401221A701F497A6813461B0190
:101AF0009B1ACA183B68134401221A707B68052B95
:101B000016D13B68042B13D116497A6813461B0182
:101B10009B1ACA183B68134401221A7012497A684A
:101B200013461B019B1ACA183B68134401221A7002
:101B30003B6801333B603B680E2B7FF763AF7B68EC
:101B400001337B607B681D2B7FF759AF074B4FF448
:101B50007A721A6000BF0C37BD465DF8047B70478F
:101B60002DEE002030EE002090E70020F4EF002062
:101B700080B487B000AF00237B6128E000233B6185
:101B80001FE017497A6913461B019B1ACA183B6963
:101B90001344187813497A6913461B019B1ACA1813
:101BA0003B69134402461A700F497A6913461B01B8
:101BB0009B1ACA183B69134400221A703B6901330F
:101BC0003B613B690E2BDCDD7B6901337B617B690B
:101BD0001D2BD3DD0023FB6042E10023BB6038E115
:101BE00030EE002090E700205CE90020FB68002B2D
:101BF00020DDFB685A1E9F4913461B019B1ACA1819
:101C0000BB6813441B78012B14D19B49FA68134617
:101C10001B019B1ACA18BB6813441B780133D8B246
:101C20009549FA6813461B019B1ACA18BB681344EE
:101C300002461A70FB681C2B20DCFB685A1C8D497D
:101C400013461B019B1ACA18BB6813441B78012B4F
:101C500014D18949FA6813461B019B1ACA18BB683C
:101C600013441B780133D8B28349FA6813461B0129
:101C70009B1ACA18BB68134402461A70BB68002B33
:101C800020DDBB68591E7B48FA6813461B019B1A6E
:101C900003440B441B78012B14D17749FA6813468F
:101CA0001B019B1ACA18BB6813441B780133D8B2B6
:101CB0007149FA6813461B019B1ACA18BB68134482
:101CC00002461A70BB680D2B20DCBB68591C6948A2
:101CD000FA6813461B019B1A03440B441B78012B23
:101CE00014D16549FA6813461B019B1ACA18BB68D0
:101CF00013441B780133D8B25F49FA6813461B01BD
:101D00009B1ACA18BB68134402461A70FB68002B62
:101D100024DDBB68002B21DDFB685A1EBB68591E01
:101D2000544813461B019B1A03440B441B78012B98
:101D300014D15149FA6813461B019B1ACA18BB6893
:101D400013441B780133D8B24B49FA6813461B0180
:101D50009B1ACA18BB68134402461A70FB68002B12
:101D600024DDBB680D2B21DCFB685A1EBB68591CA7
:101D7000404813461B019B1A03440B441B78012B5C
:101D800014D13D49FA6813461B019B1ACA18BB6857
:101D900013441B780133D8B23749FA6813461B0144
:101DA0009B1ACA18BB68134402461A70FB681C2BA6
:101DB00024DCBB68002B21DDFB685A1CBB68591E64
:101DC0002C4813461B019B1A03440B441B78012B20
:101DD00014D12949FA6813461B019B1ACA18BB681B
:101DE00013441B780133D8B22349FA6813461B0108
:101DF0009B1ACA18BB68134402461A70FB681C2B56
:101E000024DCBB680D2B21DCFB685A1CBB68591C09
:101E1000184813461B019B1A03440B441B78012BE3
:101E200014D11549FA6813461B019B1ACA18BB68DE
:101E300013441B780133D8B20F49FA6813461B01CB
:101E40009B1ACA18BB68134402461A70BB68013358
:101E5000BB60BB680E2B7FF7C9AEFB680133FB602C
:101E6000FB681D2B7FF7B9AE00237B606FE000237A
:101E70003B6066E090E700205CE9002039497A6821
:101E800013461B019B1ACA183B6813441B78002B8E
:101E900014D135497A6813461B019B1ACA183B684E
:101EA00013441B78032B09D130497A6813461B0170
:101EB0009B1ACA183B68134401221A7029497A6890
:101EC00013461B019B1ACA183B6813441B78012B4D
:101ED00014D125497A6813461B019B1ACA183B681E
:101EE00013441B78012B09D820497A6813461B013B
:101EF0009B1ACA183B68134400221A7019497A6861
:101F000013461B019B1ACA183B6813441B78012B0C
:101F100014D115497A6813461B019B1ACA183B68ED
:101F200013441B78032B09D910497A6813461B0107
:101F30009B1ACA183B68134400221A703B6801338D
:101F40003B603B680E2B99DD7B6801337B607B68CF
:101F50001D2B8CDD00BF00BF1C37BD465DF8047B28
:101F6000704700BF90E700205CE9002030EE0020C1
:101F700080B500AFFFF73AFD0E4B01221A704FF407
:101F80007A6004F035FE0C4B1B68002B0ED00A4B18
:101F90001B680A21184602F033FF0346012B05D1C6
:101FA000044B1B78012B01D1FFF7E2FD322004F036
:101FB0001FFEE8E7FFEB00200CF0002080B582B0A8
:101FC00000AF03220021012002F0A6FA0346184ABE
:101FD000136005F035FA03467B60154B1B68002B38
:101FE00006D0134B186800230022002102F0C5FB25
:101FF000104B1B68B3F5FA7F06D13B1D4FF4FA7105
:10200000184604F077FDE8E70A4B1B68B3F5FA6F52
:1020100006D13B1D4FF4FA61184604F06BFDDCE776
:102020003B1D42F21071184604F064FDD5E700BF75
:102030000CF00020F4EF002080B487B000AF3B1D0F
:1020400083E80700BB68FB75FB68BB757B68102BDA
:102050000AD1FA7DB97DBE4813461B019B1A034481
:102060000B4400221A701EE37B68112B0AD1FA7D03
:10207000B97DB74813461B019B1A03440B44012248
:102080001A7010E37B68202B66D1FA7DB97DB048C9
:1020900013461B019B1A03440B4400221A70FB7D5C
:1020A0005A1CB97DAA4813461B019B1A03440B44D2
:1020B00000221A70FB7D9A1CB97DA54813461B01AE
:1020C0009B1A03440B4400221A70FA7DBB7D591CF5
:1020D0009F4813461B019B1A03440B4400221A70AD
:1020E000FB7D5A1CBB7D591C994813461B019B1A4A
:1020F00003440B4401221A70FB7D9A1CBB7D591CC2
:10210000934813461B019B1A03440B4401221A7087
:10211000FA7DBB7D991C8E4813461B019B1A034414
:102120000B4400221A70FB7D5A1CBB7D991C884809
:1021300013461B019B1A03440B4401221A70FB7DBA
:102140009A1CBB7D991C824813461B019B1A0344B1
:102150000B4401221A70A6E27B68212B40F08E808E
:10216000FB7D1A2B00F29F82FA7DB97D78481346D9
:102170001B019B1A03440B4400221A70FB7D5A1C5E
:10218000B97D734813461B019B1A03440B4401227B
:102190001A70FB7D9A1CB97D6D4813461B019B1A72
:1021A00003440B4401221A70FB7DDA1CB97D684898
:1021B00013461B019B1A03440B4400221A70FA7D3C
:1021C000BB7D591C624813461B019B1A03440B44F8
:1021D00001221A70FB7D5A1CBB7D591C5C481346BA
:1021E0001B019B1A03440B4400221A70FB7D9A1CAE
:1021F000BB7D591C564813461B019B1A03440B44D4
:1022000000221A70FB7DDA1CBB7D591C5048134616
:102210001B019B1A03440B4401221A70FA7DBB7DFB
:10222000991C4B4813461B019B1A03440B44002284
:102230001A70FB7D5A1CBB7D991C454813461B0137
:102240009B1A03440B4401221A70FB7D9A1CBB7D30
:10225000991C3F4813461B019B1A03440B4401225F
:102260001A70FB7DDA1CBB7D991C394813461B0193
:102270009B1A03440B4400221A7014E27B68222B41
:1022800068D1FA7DB97D324813461B019B1A03447D
:102290000B4400221A70FB7D5A1CB97D2C48134652
:1022A0001B019B1A03440B4400221A70FB7D9A1CED
:1022B000B97D274813461B019B1A03440B44002297
:1022C0001A70FA7DBB7D591C214813461B019B1ACD
:1022D00003440B4400221A70FB7D5A1CBB7D591C21
:1022E0001B4813461B019B1A03440B4400221A701F
:1022F000FB7D9A1CBB7D591C154813461B019B1A7C
:1023000003440B4400221A70FA7DBB7D991C1048CF
:1023100013461B019B1A03440B4400221A70FB7DD9
:102320005A1CBB7D991C0A4813461B019B1A034487
:102330000B4400221A70FB7D9A1CBB7D991C04483B
:1023400013461B019B1A03440B4400221A70AAE196
:1023500030EE00207B68302B66D1FA7DB97D9C4839
:1023600013461B019B1A03440B4400221A70FB7D89
:102370005A1CB97D964813461B019B1A03440B4413
:1023800000221A70FB7D9A1CB97D914813461B01EF
:102390009B1A03440B4400221A70FA7DBB7D591C22
:1023A0008B4813461B019B1A03440B4400221A70EE
:1023B000FB7D5A1CBB7D591C854813461B019B1A8B
:1023C00003440B4400221A70FB7D9A1CBB7D591CF0
:1023D0007F4813461B019B1A03440B4400221A70CA
:1023E000FA7DBB7D991C7A4813461B019B1A034456
:1023F0000B4400221A70FB7D5A1CBB7D991C74484B
:1024000013461B019B1A03440B4400221A70FB7DE8
:102410009A1CBB7D991C6E4813461B019B1A0344F2
:102420000B4400221A703EE17B68312B66D1FA7DA5
:10243000B97D674813461B019B1A03440B440022D5
:102440001A70FB7D5A1CB97D614813461B019B1A0B
:1024500003440B4400221A70FB7D9A1CB97D5C4832
:1024600013461B019B1A03440B4400221A70FA7D89
:10247000BB7D591C564813461B019B1A03440B4451
:1024800000221A70FB7D5A1CBB7D591C5048134614
:102490001B019B1A03440B4400221A70FB7D9A1CFB
:1024A000BB7D591C4A4813461B019B1A03440B442D
:1024B00000221A70FA7DBB7D991C454813461B010A
:1024C0009B1A03440B4400221A70FB7D5A1CBB7DEF
:1024D000991C3F4813461B019B1A03440B440022DE
:1024E0001A70FB7D9A1CBB7D991C394813461B0151
:1024F0009B1A03440B4400221A70D4E07B68322BF1
:1025000068D1FA7DB97D324813461B019B1A0344FA
:102510000B4400221A70FB7D5A1CB97D2C481346CF
:102520001B019B1A03440B4400221A70FB7D9A1C6A
:10253000B97D274813461B019B1A03440B44002214
:102540001A70FA7DBB7D591C214813461B019B1A4A
:1025500003440B4400221A70FB7D5A1CBB7D591C9E
:102560001B4813461B019B1A03440B4400221A709C
:10257000FB7D9A1CBB7D591C154813461B019B1AF9
:1025800003440B4400221A70FA7DBB7D991C10484D
:1025900013461B019B1A03440B4400221A70FB7D57
:1025A0005A1CBB7D991C0A4813461B019B1A034405
:1025B0000B4400221A70FB7D9A1CBB7D991C0448B9
:1025C00013461B019B1A03440B4400221A706AE055
:1025D00030EE00207B68402B65D1FA7DB97D35480F
:1025E00013461B019B1A03440B4400221A70FB7D07
:1025F0005A1CB97D2F4813461B019B1A03440B44F8
:1026000000221A70FB7D9A1CB97D2A4813461B01D3
:102610009B1A03440B4400221A70FA7DBB7D591C9F
:10262000244813461B019B1A03440B4400221A70D2
:10263000FB7D5A1CBB7D591C1E4813461B019B1A6F
:1026400003440B4400221A70FB7D9A1CBB7D591C6D
:10265000184813461B019B1A03440B4400221A70AE
:10266000FA7DBB7D991C134813461B019B1A03443A
:102670000B4400221A70FB7D5A1CBB7D991C0D482F
:1026800013461B019B1A03440B4400221A70FB7D66
:102690009A1CBB7D991C074813461B019B1A0344D7
:1026A0000B4400221A7000BF1C37BD465DF8047B46
:1026B000704700BF30EE002080B582B002AF074BFC
:1026C00001930423009300234FF4807204490548CA
:1026D00004F042F800BFBD4680BD00BF4CEB0020B7
:1026E00034470308192A000880B500AFFEF73EFA08
:1026F000FDF71EFF034B01221A70034B00221A70D4
:1027000000BF80BD50EB00202CEE002080B584B0CF
:1027100000AF914B1B78002B03D1002006F0A8FCE2
:1027200002E0012006F0A4FC0023FB6052E000233D
:10273000BB6049E08949FA6813461B019B1ACA1815
:10274000BB6813441B78012B3BD1FB68DBB25B00F9
:10275000D8B2BB68DBB25B00DBB2814A12781946A3
:1027600006F0D2FCFB68DBB25B00DBB20133D8B20F
:10277000BB68DBB25B00DBB2794A1278194606F01F
:10278000C3FCFB68DBB25B00D8B2BB68DBB25B00AA
:10279000DBB20133DBB2724A1278194606F0B4FCA0
:1027A000FB68DBB25B00DBB20133D8B2BB68DBB2E3
:1027B0005B00DBB20133DBB2694A1278194606F0DE
:1027C000A3FCBB680133BB60BB680E2BB2DDFB68AA
:1027D0000133FB60FB681D2BA9DD624B1B78012BCD
:1027E00040F0F8800121402006F0EEFC5C4B1B78A5
:1027F0005D4A06CA5D4806F073FE5D4B1B78012BEF
:1028000018D15C4B1B78012B14D15B4B1B781A46FB
:10281000520013445B00DBB24033DBB201211846A7
:1028200006F0D2FC554B18784D4B1B784E4A06CA21
:1028300006F0D6FD4F4B1B78012B1BD100237B608C
:1028400015E07B68DAB24C4B1B78194649000B4403
:102850005B00DBB21344DBB24033DBB2404A127898
:102860000921184606F050FC7B6801337B607B68C9
:10287000052BE6DD424B1B78002B40F09580414B49
:102880001B78002B16D10B21402006F09DFC344B09
:102890001B78354A06CA3C4806F022FE1321402028
:1028A00006F092FC2E4B1B782F4A06CA374806F0DA
:1028B00017FE8FE0334B1B78012B16D10B214020E4
:1028C00006F082FC264B1B78274A06CA304806F0E1
:1028D00007FE1321402006F077FC214B1B78224A8B
:1028E00006CA2C4806F0FCFD74E0264B1B78022B30
:1028F00016D10B21402006F067FC194B1B781A4AB1
:1029000006CA254806F0ECFD1321402006F05CFCC9
:10291000134B1B78144A06CA204806F0E1FD59E023
:10292000184B1B78032B55D10B21402006F04CFC93
:102930000B4B1B780C4A06CA194806F0D1FD13212F
:10294000402006F041FC064B1B78074A06CA154892
:1029500006F0C6FD3EE000BF2CEE002030EE002069
:1029600050EB00201EEB00200800002014F0002097
:1029700025EE002024EE002059E9002010F0002070
:1029800024EB002088E700203C4703084047030869
:1029900044470308504703085C4703086847030897
:1029A000704703087C4703080B21402006F00CFC0D
:1029B000134B1B78134A06CA134806F091FD1321E6
:1029C000402006F001FC0E4B1B780E4A06CA0F4849
:1029D00006F086FD06F070FB0D4B1B781BB203F072
:1029E00007031AB20B4B1B78DB001BB213431BB25D
:1029F0009BB21846FEF75EFA00BF1037BD4680BD99
:102A000050EB002008000020884703089047030887
:102A100020EC002058E9002080B500AFFFF764FEED
:102A20004FF47A7004F0E4F8FFF770FEC82004F069
:102A3000DFF8F9E780B582B002AF0C4B01930423B5
:102A4000009300234FF4807209490A4803F084FE82
:102A5000094B01930423009300234FF4807207492C
:102A6000074803F079FE00BFBD4680BD08F0002096
:102A700098470308C52B0008F0EB0020A047030887
:102A8000E52B000880B400AF054B00221A70054BFF
:102A900000221A7000BFBD465DF8047B704700BF7E
:102AA00058E9002020EC002080B400AF034B1B78D5
:102AB0001846BD465DF8047B704700BF58E900200A
:102AC00080B400AF034B1B781846BD465DF8047B0D
:102AD000704700BF20EC002080B500AFFEF7A6FDD8
:102AE0000346012B63D1344B00221A60012029F0E8
:102AF00027FC324B1B78012B59D1314B1B780F2B04
:102B000057D801A252F823F0492B0008512B000896
:102B1000592B0008612B0008672B00086F2B000859
:102B2000772B00087F2B0008852B00088D2B0008D1
:102B3000952B00089D2B0008A32B0008A92B00084B
:102B4000B32B0008B32B0008002000F0CDF831E0D3
:102B5000012000F0C9F82DE0022000F0C5F829E0BE
:102B600000F00AF926E0032000F0BEF822E004207D
:102B700000F0BAF81EE0052000F0B6F81AE000F008
:102B800007F917E0062000F0AFF813E0072000F087
:102B9000ABF80FE0082000F0A7F80BE000F07CF89D
:102BA00008E000F041F805E000F05AF802E000BF4C
:102BB00000E000BF00BF80BD18EC00202DEE00201B
:102BC000F9EB002080B500AFFFF75CFF044B1B78EA
:102BD000002B01D1FFF780FF142004F009F8F5E77E
:102BE0001EEB002080B582B000AF0322002101203F
:102BF00001F092FC03460B4A136004F021FC0346EB
:102C00007B60084B1B68002B06D0064B186800231E
:102C10000022002101F0B1FD3B1D1421184603F0F4
:102C200069FFEEE714EC002080B400AF0A4B1B787C
:102C30005A1C0A4B83FB02139910D317C91A0B466F
:102C40009B000B445B00D11ACAB2034B1A7000BF41
:102C5000BD465DF8047B704758E9002067666666EC
:102C600080B400AF0A4B1B785A1C0A4B83FB02133B
:102C70005910D317C91A0B469B000B44D11ACAB27C
:102C8000034B1A7000BFBD465DF8047B704700BF60
:102C900020EC00206766666680B483B000AF002336
:102CA0007B6015E000233B600CE00E497A68134618
:102CB0001B019B1ACA183B68134400221A703B6818
:102CC00001333B603B681D2BEFDD7B6801337B608C
:102CD0007B681D2BE6DD00BF00BF0C37BD465DF8ED
:102CE000047B704730EE002080B588B000AF03460B
:102CF000FB71FA791C4BA3FB021359080B465B00CE
:102D00000B44D31ADBB2FB61FB79174AA2FB032306
:102D10005B08DBB2BB61154B1B781A4613465B00A0
:102D20001A44FB6913443B61114B1B781A46134646
:102D30005B001A44BB6913447B613A6979690D48A9
:102D400013461B019B1A03440B441B78C3F1110368
:102D5000FB6007F10C0393E80700FFF76DF900BF74
:102D60002037BD4680BD00BFABAAAAAA58E9002003
:102D700020EC002030EE002080B400AF034B012295
:102D80001A7000BFBD465DF8047B7047FFEB002062
:102D900080B400AF034B00221A7000BFBD465DF83F
:102DA000047B7047FFEB002080B582B002AF0C4B74
:102DB00001930423009300234FF4807209490A48C9
:102DC00003F0CAFC094B01930423009300234FF442
:102DD00080720749074803F0BFFC00BFBD4680BDB5
:102DE000E8EB0020B04703086D2F00080CEC002032
:102DF000BC470308AD2F000880B400AF144B00227D
:102E00001A70144B00221A70134B00221A70134BC5
:102E100000221A70124B00221A70124B00221A6004
:102E2000114B00221A60114B00221A60104B002235
:102E30001A60104B00221A700F4B00221A700F4BB1
:102E400000221A7000BFBD465DF8047B704700BFCA
:102E500059E9002014F0002010F0002025EE002099
:102E600000EC0020F4EB00201CEC00208CE700209C
:102E700008EC002088E7002024EE002024EB00204E
:102E800080B500AFFEF7D2FB0346012B65D1354B71
:102E900000221A60012029F053FA334B1B780F2BC4
:102EA0005DD801A252F823F0E92E0008F12E0008A7
:102EB000F92E0008012F0008072F00080F2F000827
:102EC000172F00081F2F0008252F00082D2F00089E
:102ED000352F00083D2F0008432F00084B2F000816
:102EE0005F2F0008532F0008002000F013F937E08F
:102EF000012000F00FF933E0022000F00BF92FE081
:102F000000F00EFD2CE0032000F004F928E004207E
:102F100000F000F924E0052000F0FCF820E000F0CB
:102F2000CFF81DE0062000F0F5F819E0072000F0CA
:102F3000F1F815E0082000F0EDF811E000F0B6FC23
:102F40000EE0092000F0E6F80AE00A2000F0E2F8BE
:102F500006E00B2000F0DEF802E000BF00E000BF5A
:102F600000BF80BD18EC0020F9EB002080B500AF59
:102F7000FFF742FF0B4B1B68002B0ED0094B1B6861
:102F80000A21184601F03CFF0346012B05D1064BF0
:102F90001B78012B01D1FFF773FF142003F028FEEB
:102FA000E8E700BF30F000201EEB002080B582B0C3
:102FB00000AF03220021012001F0AEFA0346364A99
:102FC000136004F03DFA03467B60344B1B78012B01
:102FD0005CD1314B1B68002B06D02F4B18680023A7
:102FE0000022002101F0C9FB2D4B1B78012B04D1DD
:102FF0002C4B1B6814332B4A13602B4B1B78012B73
:103000000FD12A4B1B681433284A1360274B1B68C7
:10301000B3F57A7F05DD244B00221A70234B002282
:103020001A60204B1B68B3F5FA6F01DD00F002FC5B
:103030001F4B1B6814331E4A13601D4B1B68B3F5EE
:103040007A7F0FDD1B4B1B7801335A4203F00303D9
:1030500002F0030258BF5342DAB2164B1A70144BF7
:1030600000221A60144B1B681433134A1360124B6E
:103070001B68B3F5FA7F09DD104B1B78C3F1010320
:10308000DAB20E4B1A700C4B00221A603B1D142151
:10309000184603F02FFD98E730F000201EEB0020CB
:1030A00025EE0020F4EB002024EB002008EC0020AB
:1030B0001CEC002088E700208CE7002024EE002094
:1030C00080B582B000AF114B1B78002B02D100F00D
:1030D000EDFB17E000F0AEFB0C4B1B78013B7B6077
:1030E00007E00B4A7B68134400221A707B680133A7
:1030F0007B607B68052BF4DD044B1B78013BDAB267
:10310000024B1A7000BF0837BD4680BD59E9002048
:1031100014F0002080B582B000AF0346FB71064B6F
:103120001B78052B03D8FB79184600F007F800BF81
:103130000837BD4680BD00BF59E9002080B582B088
:1031400000AF0346FB71FB79002B0CD1A24B1B781F
:10315000012B01D100F06EFB312000F087FB9F4B6B
:1031600000221A7059E3FB79012B5CD19A4B1B7832
:10317000012B4BD1994B1B78012B38D1984B1B78E5
:10318000322B09D1964B41221A70964B00221A60BD
:10319000924B01221A7040E3914B1B78412B09D1CD
:1031A0008F4B42221A708F4B00221A608B4B0122E8
:1031B0001A7032E38A4B1B78422B09D1884B432289
:1031C0001A70884B00221A60844B01221A7024E383
:1031D000834B1B78432B40F02083814B32221A70A3
:1031E000804B00221A607D4B01221A7015E300F01B
:1031F00021FB794B01221A70794B32221A70794BDC
:1032000000221A60754B01221A7006E3724B0122EC
:103210001A70734B32221A70724B00221A606F4B75
:1032200001221A70F9E2FB79022B5CD16A4B1B7800
:10323000012B4BD1694B1B78022B38D1684B1B7883
:10324000332B09D1664B44221A70664B00221A6058
:10325000624B02221A70E0E2614B1B78442B09D1C9
:103260005F4B45221A705F4B00221A605B4B0222B3
:103270001A70D2E25A4B1B78452B09D1584B462283
:103280001A70584B00221A60544B02221A70C4E282
:10329000534B1B78462B40F0C082514B33221A709F
:1032A000504B00221A604D4B02221A70B5E200F01A
:1032B000C1FA494B01221A70494B33221A70494B0B
:1032C00000221A60454B02221A70A6E2424B0122EC
:1032D0001A70434B33221A70424B00221A603F4B44
:1032E00002221A7099E2FB79032B5CD13A4B1B78CE
:1032F000012B4BD1394B1B78032B38D1384B1B7822
:10330000342B09D1364B47221A70364B00221A60F3
:10331000324B03221A7080E2314B1B78472B09D1C4
:103320002F4B48221A702F4B00221A602B4B03227E
:103330001A7072E22A4B1B78482B09D1284B49227C
:103340001A70284B00221A60244B03221A7064E280
:10335000234B1B78492B40F06082214B34221A709A
:10336000204B00221A601D4B03221A7055E200F018
:1033700061FA194B01221A70194B34221A70194B39
:1033800000221A60154B03221A7046E2124B0122EA
:103390001A70134B34221A70124B00221A600F4B12
:1033A00003221A7039E2FB79042B64D10A4B1B7893
:1033B000012B53D1094B1B78042B40D1084B1B78B0
:1033C000352B11D1064B4A221A70064B00221A6087
:1033D000024B04221A7020E225EE002000EC0020AF
:1033E00010F00020F4EB0020A44B1B784A2B09D1ED
:1033F000A24B4B221A70A24B00221A60A14B04224E
:103400001A700AE29D4B1B784B2B09D19B4B4C2227
:103410001A709B4B00221A609A4B04221A70FCE12E
:10342000964B1B784C2B40F0F881944B35221A7048
:10343000934B00221A60934B04221A70EDE100F0C6
:10344000F9F9914B01221A708C4B35221A708C4B72
:1034500000221A608B4B04221A70DEE18A4B012293
:103460001A70864B35221A70854B00221A60854BE4
:1034700004221A70D1E1FB79052B5CD1824B1B78B9
:10348000012B4BD17F4B1B78052B38D17B4B1B7805
:10349000362B09D1794B4D221A70794B00221A60D4
:1034A000784B05221A70B8E1744B1B784D2B09D16B
:1034B000724B4E221A70724B00221A60714B052219
:1034C0001A70AAE16D4B1B784E2B09D16B4B4F2222
:1034D0001A706B4B00221A606A4B05221A709CE12D
:1034E000664B1B784F2B40F09881644B36221A7044
:1034F000634B00221A60634B05221A708DE100F0C5
:1035000099F9614B01221A705C4B36221A705C4BA0
:1035100000221A605B4B05221A707EE15A4B012291
:103520001A70564B36221A70554B00221A60554BB2
:1035300005221A7071E1FB79062B6AD1524B1B7878
:10354000012B59D14F4B1B78062B46D14B4B1B7887
:10355000372B09D1494B50221A70494B00221A606F
:10356000484B06221A7058E1444B1B78502B09D166
:10357000424B51221A70424B00221A60414B0622E4
:103580001A704AE13D4B1B78512B09D13B4B52221B
:103590001A703B4B00221A603A4B06221A703CE12B
:1035A000364B1B78522B09D1344B53221A70344BB3
:1035B00000221A60334B06221A702EE12F4B1B7823
:1035C000532B40F02A812D4B37221A702C4B0022AE
:1035D0001A602C4B06221A701FE100F02BF92A4BBF
:1035E00001221A70254B37221A70254B00221A60CF
:1035F000244B06221A7010E1234B01221A701F4B34
:1036000037221A701E4B00221A601E4B06221A70B7
:1036100003E1FB79072B64D11B4B1B78012B53D1A2
:10362000184B1B78072B40D1144B1B78382B09D132
:10363000124B54221A70124B00221A60114B0722AF
:103640001A70EAE00D4B1B78542B09D10B4B552215
:103650001A700B4B00221A600A4B07221A70DCE02A
:10366000064B1B78552B11D1044B56221A70044B74
:1036700000221A60034B07221A70CEE010F00020DF
:10368000F4EB002000EC002025EE0020654B1B78B9
:10369000562B40F0C280634B38221A70624B0022D6
:1036A0001A60624B07221A70B7E000F0C3F8604B53
:1036B00001221A705B4B38221A705B4B00221A6091
:1036C0005A4B07221A70A8E0594B01221A70554B29
:1036D00038221A70544B00221A60544B07221A7079
:1036E0009BE0FB79082B69D1514B1B78012B58D1FA
:1036F0004E4B1B78082B45D14A4B1B78392B09D1EF
:10370000484B57221A70484B00221A60474B082238
:103710001A7082E0434B1B78572B09D1414B58223A
:103720001A70414B00221A60404B08221A7074E054
:103730003C4B1B78582B09D13A4B59221A703A4B03
:1037400000221A60394B08221A7066E0354B1B784C
:10375000592B09D1334B5A221A70334B00221A606D
:10376000324B08221A7058E02E4B1B785A2B54D13A
:103770002C4B39221A702C4B00221A602B4B08223A
:103780001A704AE000F056F8294B01221A70254BB6
:1037900039221A70244B00221A60244B08221A7016
:1037A0003BE0234B01221A701E4B39221A701E4B2C
:1037B00000221A601D4B08221A702EE0FB79092B9B
:1037C0000CD11B4B1B78012B01D100F033F83020BA
:1037D00000F04CF8154B09221A701EE0FB790A2BF9
:1037E0000CD1134B1B78012B01D100F023F82A20B8
:1037F00000F03CF80D4B0A221A700EE0FB790B2BFF
:103800000BD10B4B1B78012B01D100F013F82320B7
:1038100000F02CF8054B0B221A7000BF0837BD468C
:1038200080BD00BF10F00020F4EB002000EC002071
:1038300025EE002080B500AF094B1B78012B0DD180
:10384000084B1B78184600F011F8064B00221A703E
:10385000034B00221A70044B00221A6000BF80BD87
:1038600025EE002010F00020F4EB002080B483B09F
:1038700000AF0346FB710B4B1B78052B0BD8094B94
:103880001B781946084AFB795354064B1B780133C1
:10389000DAB2044B1A7000BF0C37BD465DF8047BEA
:1038A000704700BF59E9002014F0002080B483B0B5
:1038B00000AF104B00221A700F4B00221A700F4BF2
:1038C00000221A6000237B6007E00D4A7B681344E6
:1038D00000221A707B6801337B607B68052BF4DD66
:1038E000084B00221A7000BF0C37BD465DF8047B00
:1038F000704700BF10F0002025EE0020F4EB002000
:1039000014F0002059E9002080B500AF034B0122DC
:103910001A70FFF7CBFF00BF80BD00BF24EB002073
:1039200080B584B000AFFFF785FFA04B1B78002B5C
:1039300000F039819E4B1B78012B40F0E0809D4BBD
:103940001B78532B3BD19B4B5B78542B37D1994B36
:103950009B784C2B33D1974BDB782F2B2FD9954B62
:10396000DB78322B2BD8934B1B792F2B27D9914BFC
:103970001B79392B23D88F4B5B792F2B1FD98D4B7C
:103980005B79342B1BD88B4BDB78103B7B60894BEE
:103990001B79A3F1300213465B001344BB60854BD7
:1039A0005B79A3F1300213465B001344FB603B1DBF
:1039B00093E80700FEF740FBFFF778FFF3E07D4B4D
:1039C0001B784F2B3AD17B4B5B78532B36D1794BFD
:1039D0009B78432B32D1774BDB782F2B2ED9754B2D
:1039E000DB78322B2AD8734B1B792F2B26D9714BBE
:1039F0001B79392B22D86F4B5B792F2B1ED96D4B3E
:103A00005B79342B1AD86B4BDB787B60694B1B7965
:103A1000A3F1300213465B001344BB60654B5B7936
:103A2000A3F1300213465B001344FB603B1D93E897
:103A30000700FEF701FBFFF739FFB4E05D4B1B7891
:103A4000472B35D15B4B5B784C2B31D1594B9B7855
:103A5000442B2DD1574BDB782F2B29D9554BDB78B5
:103A6000392B25D8534B1B792F2B21D9514B1B793F
:103A7000342B1DD84F4B5B79002B19D140237B6031
:103A80004C4BDB78A3F1300213465B001344BB6060
:103A9000484B1B79A3F1300213465B001344FB60D3
:103AA0003B1D93E80700FEF7C7FAFFF7FFFE7AE039
:103AB000404B1B782A2B08D13E4B5B78002B04D15E
:103AC000FFF75AF9FFF7F2FE6DE03A4B1B78232B14
:103AD00008D1384B5B78002B04D1FFF759F9FFF779
:103AE000E5FE60E0334B1B78302B08D1314B5B781F
:103AF000002B04D1FFF7D0F8FFF7D8FE53E02D4B91
:103B00001B78442B21D12B4B5B784C2B1DD1294B9F
:103B10009B78542B19D1274BDB782F2B15D9254BAC
:103B2000DB78312B11D8234B1B79002B0DD1214B86
:103B3000DB78302B02D100F03FF82FE01D4BDB7813
:103B4000312B2BD100F046F828E01A4B1B78432B81
:103B500021D1184B5B78522B1DD1164B9B78452BEE
:103B600019D1144BDB782F2B15D9124BDB78312B65
:103B700011D8104B1B79002B0DD10E4BDB78302B5D
:103B800002D100F033F80BE00A4BDB78312B07D180
:103B900000F038F804E0FFF7B7FE02E000BF00E0F5
:103BA00000BFFFF783FE1037BD4680BD59E90020F6
:103BB0002DEE002014F0002080B500AFFFF76CF868
:103BC000FFF7E6F8024B00221A7000BF80BD00BF6D
:103BD0002DEE002080B400AF034B00221A7000BF0E
:103BE000BD465DF8047B704734F0002080B500AF1F
:103BF000034B01221A70FFF7BFF800BF80BD00BF62
:103C00002DEE002080B400AF034B01221A7000BFDC
:103C1000BD465DF8047B704734F0002080B582B06B
:103C200002AF074B01930423009300234FF48072EB
:103C30000449054802F090FD00BFBD4680BD00BFAD
:103C4000E4EB0020D04703086D3C000880B500AFCE
:103C5000044B00221A70044B00221A70FDF724FA5C
:103C600000BF80BD1EEB0020F9EB002080B582B0C4
:103C700000AFFFF7EBFF03F0E3FB03467B60FDF7CC
:103C80001FFA3B1D3221184602F034FFF7E780B5DA
:103C900000AF0C4B1B78002B09D10A4B01221A7084
:103CA000042028F01FFB022028F0EEFA08E0054B64
:103CB00000221A70042028F0E7FA022028F012FBF4
:103CC00000BF80BD1EEB002080B582B000AF1C207D
:103CD000FCF7B6FB78607B68002B07D07B6800227E
:103CE0001A607B680433184600F0FAFA7B681846BD
:103CF0000837BD4680BD80B58CB000AFF860B960B4
:103D00007A603B60FB68BB6200237B627B6803F0E8
:103D10007F43002B0AD04FF0500383F31188BFF389
:103D20006F8FBFF34F8FBB6100BFFEE77B68002B37
:103D30000AD14FF0500383F31188BFF36F8FBFF3A5
:103D40004F8F7B6100BFFEE704F0FEF80346002BB7
:103D500002D13B68002B01D1012300E00023002B9E
:103D60000AD14FF0500383F31188BFF36F8FBFF375
:103D70004F8F3B6100BFFEE703F0B8FABB6A1B68D8
:103D80003B62B968F86800F08FF93A6ABB681A4379
:103D90007B6813407A689A420DD13A6ABB68134334
:103DA000FB62BB6A1A687B68DB431A40BB6A1A6015
:103DB00000233B6013E03B68002B0BD0BB6A181D4F
:103DC0007B6843F0A0633A68194603F051FD002375
:103DD000FB6204E0BB6A1B68FB6201237B6203F0A9
:103DE00093FAF8613B68002B2CD0FB69002B07D1BC
:103DF000174B4FF080521A60BFF34F8FBFF36F8F96
:103E000004F060FAF862FB6A03F00073002B15D12E
:103E100004F018FFBB6A1B68FB62FA6A7B681340F8
:103E20007A689A4206D1BB6A1A687B68DB431A40FB
:103E3000BB6A1A6004F036FF01237B62FB6A23F041
:103E40007F43FB62FB6A18463037BD4680BD00BF2A
:103E500004ED00E080B590B000AFF860B9607A6022
:103E60003B60FB687B630023BB6300233B63FB6811
:103E7000002B0AD14FF0500383F31188BFF36F8FEB
:103E8000BFF34F8F3B6200BFFEE7BB6803F07F4389
:103E9000002B0AD04FF0500383F31188BFF36F8FCC
:103EA000BFF34F8FFB6100BFFEE7BB68002B0AD159
:103EB0004FF0500383F31188BFF36F8FBFF34F8F21
:103EC000BB6100BFFEE704F03FF80346002B02D1C0
:103ED000BB6C002B01D1012300E00023002B0AD191
:103EE0004FF0500383F31188BFF36F8FBFF34F8FF1
:103EF0007B6100BFFEE703F0F9F97B6B1B68FB6297
:103F00003A68B968F86A00F0A5F9B862BB6A002B94
:103F10000ED0FB6AFB630023BB647B68002B28D0B8
:103F20007B6B1A68BB68DB431A407B6B1A6020E02E
:103F3000BB6C002B04D1FB6AFB6301233B6318E0DD
:103F40007B68002B03D0BB6B43F08073BB633B6883
:103F5000002B03D0BB6B43F08063BB637B6B181DEE
:103F6000BA68BB6B1343BA6C194603F081FC00239B
:103F7000FB6303F0C9F97862BB6C002B31D07B6A1C
:103F8000002B07D1194B4FF080521A60BFF34F8FAF
:103F9000BFF36F8F04F096F9F863FB6B03F00073C7
:103FA000002B1AD104F04EFE7B6B1B68FB633A6852
:103FB000B968F86B00F04EF90346002B09D07B6816
:103FC000002B06D07B6B1A68BB68DB431A407B6B07
:103FD0001A6001233B6304F065FEFB6B23F07F4313
:103FE000FB63FB6B18464037BD4680BD04ED00E027
:103FF00080B586B000AF786039607B687B617B6894
:10400000002B0AD14FF0500383F31188BFF36F8F59
:10401000BFF34F8FFB6000BFFEE73B6803F07F43B9
:10402000002B0AD04FF0500383F31188BFF36F8F3A
:10403000BFF34F8FBB6000BFFEE704F003FE7B6958
:104040001B683B617B691A683B68DB431A407B69EC
:104050001A6004F027FE3B6918461837BD4680BD3C
:1040600080B489B000AF78607B68FB61EFF31182A8
:104070004FF0500383F31188BFF36F8FBFF34F8F5F
:10408000FA60BB60FB68BB61FB691B687B61BB6955
:104090003B613B6983F3118800BF7B691846243775
:1040A000BD465DF8047B704780B58EB000AF786088
:1040B000396000233B637B68BB620023FB627B6843
:1040C000002B0AD14FF0500383F31188BFF36F8F99
:1040D000BFF34F8F3B6100BFFEE73B6803F07F43B8
:1040E000002B0AD04FF0500383F31188BFF36F8F7A
:1040F000BFF34F8FFB6000BFFEE7BB6A04337B62F8
:104100007B6A08333B6203F0F1F87B6ADB687B6310
:10411000BB6A1A683B681A43BB6A1A603CE07B6B57
:104120005B68FB617B6B1B68BB610023FB62BB6947
:1041300003F07F437B61BB6923F07F43BB617B69F5
:1041400003F08063002B08D1BB6A1A68BB69134077
:10415000002B0BD00123FB6208E0BB6A1A68BB6925
:104160001340BA699A4201D10123FB62FB6A002B1A
:1041700010D07B6903F08073002B03D03A6BBB69CE
:1041800013433B63BB6A1B6843F000731946786BAB
:1041900003F00CFCFB697B637A6B3B6A9A42BED1ED
:1041A000BB6A1A683B6BDB431A40BB6A1A6003F0B8
:1041B000ABF8BB6A1B6818463837BD4680BD80B572
:1041C00086B000AF78607B687B617B6904333B61BC
:1041D00003F08CF817E03B69DA683B6908339A42D0
:1041E0000AD14FF0500383F31188BFF36F8FBFF3F1
:1041F0004F8FFB6000BFFEE73B69DB684FF000714B
:10420000184603F0D3FB3B691B68002BE3D17869A8
:10421000FCF75CF903F078F800BF1837BD4680BDA5
:1042200080B582B000AF7860396039687868FFF790
:104230003BFF00BF0837BD4680BD80B582B000AFF0
:104240007860396039687868FFF7D2FE00BF0837B8
:10425000BD4680BD80B487B000AFF860B9607A60B9
:1042600000237B617B68002B07D1FA68BB68134091
:10427000002B0AD001237B6107E0FA68BB6813407A
:10428000BA689A4201D101237B617B6918461C37C9
:10429000BD465DF8047B704780B485B000AF7860A0
:1042A0007B68BB607B68002B02D10023FB6002E0CF
:1042B000BB689B69FB60FB6818461437BD465DF818
:1042C000047B704780B483B000AF786039607B684E
:1042D0003A689A6100BF0C37BD465DF8047B7047B1
:1042E00080B483B000AF78607B6803F108027B681C
:1042F0005A607B684FF0FF329A607B6803F10802D6
:104300007B68DA607B6803F108027B681A617B686E
:1043100000221A6000BF0C37BD465DF8047B704771
:1043200080B483B000AF78607B6800221A6100BF60
:104330000C37BD465DF8047B704780B485B000AF94
:10434000786039607B685B68FB603B68FA685A603C
:10435000FB689A683B689A60FB689B683A685A6099
:10436000FB683A689A603B687A681A617B681B68E8
:104370005A1C7B681A6000BF1437BD465DF8047B89
:10438000704780B485B000AF786039603B681B68C7
:10439000BB60BB68B3F1FF3F03D17B681B69FB6067
:1043A0000CE07B680833FB6002E0FB685B68FB6045
:1043B000FB685B681B68BA689A42F6D2FB685A6869
:1043C0003B685A603B685B683A689A603B68FA6889
:1043D0009A60FB683A685A603B687A681A617B6841
:1043E0001B685A1C7B681A6000BF1437BD465DF815
:1043F000047B704780B485B000AF78607B681B6930
:10440000FB607B685B687A6892689A607B689B68EF
:104410007A6852685A60FB685B687A689A4203D18E
:104420007B689A68FB685A607B6800221A61FB68A7
:104430001B685A1EFB681A60FB681B681846143715
:10444000BD465DF8047B704780B584B000AF7860EE
:1044500039607B68FB60FB68002B0AD14FF050038A
:1044600083F31188BFF36F8FBFF34F8FBB6000BF23
:10447000FEE704F0E7FBFB681A68FB68DB6BF96892
:10448000096C01FB03F31A44FB689A60FB68002285
:104490009A63FB681A68FB685A60FB681A68FB68D5
:1044A000DB6B013BF968096C01FB03F31A44FB6801
:1044B000DA60FB68FF2283F84420FB68FF2283F860
:1044C00045203B68002B14D1FB681B69002B1AD0D8
:1044D000FB681033184603F007FA0346002B12D08E
:1044E0000C4B4FF080521A60BFF34F8FBFF36F8FAA
:1044F00009E0FB6810331846FFF7F2FEFB6824332F
:104500001846FFF7EDFE04F0CDFB012318461037E7
:10451000BD4680BD04ED00E080B58AB002AFF86012
:10452000B9601346FB71FB68002B0AD14FF05003B2
:1045300083F31188BFF36F8FBFF34F8F3B6100BFD1
:10454000FEE7BB68002B02D10023FB6104E0FB689F
:10455000BA6802FB03F3FB61FB6954331846FBF7AF
:104560006FFFB861BB69002B0DD0BB697B617B69B4
:1045700054337B61FA79BB69009313467A69B96851
:10458000F86800F005F8BB6918462037BD4680BDC5
:1045900080B584B000AFF860B9607A60FB70BB682A
:1045A000002B03D1BB69BA691A6002E0BB697A6863
:1045B0001A60BB69FA68DA63BB69BA681A640121D8
:1045C000B869FFF741FFBB69FA7883F85020BB69EF
:1045D00000229A6400BF1037BD4680BD80B582B00E
:1045E00000AF78607B68002B0ED07B6800229A6059
:1045F0007B6800221A607B680022DA6000230022B8
:104600000021786800F0B9F800BF0837BD4680BDCA
:1046100080B586B000AF0346FB7101237B610023A8
:104620003B61FB791A4639697869FFF775FFF860D5
:10463000F868FFF7D3FFFB6818461837BD4680BD02
:1046400090B587B000AF78607B683B613B69002B19
:104650000AD14FF0500383F31188BFF36F8FBFF37C
:104660004F8FFB6000BFFEE73B699C6803F05CFC7A
:1046700003469C4211D13B69DB685A1E3B69DA60F4
:104680003B69DB68002B05D100230022002138693B
:1046900000F073F801237B6101E000237B617B69FB
:1046A00018461C37BD4690BD90B587B000AF786006
:1046B00039607B683B613B69002B0AD14FF05003A6
:1046C00083F31188BFF36F8FBFF34F8FFB6000BF81
:1046D000FEE73B699C6803F027FC03469C4207D138
:1046E0003B69DB685A1C3B69DA6001237B610CE0A3
:1046F0003968386900F084FB78617B69002B04D04D
:104700003B69DB685A1C3B69DA607B6918461C37D9
:10471000BD4690BD80B586B000AF786039607B68DB
:10472000002B0AD14FF0500383F31188BFF36F8F32
:10473000BFF34F8F3B6100BFFEE73A687B689A4248
:104740000AD94FF0500383F31188BFF36F8FBFF383
:104750004F8FFB6000BFFEE7022200217868FFF761
:10476000DBFE78617B69002B02D07B693A689A6333
:104770007B6918461837BD4680BD80B58EB000AF46
:10478000F860B9607A603B6000237B63FB683B6341
:104790003B6B002B0AD14FF0500383F31188BFF31A
:1047A0006F8FBFF34F8F7B6200BFFEE7BB68002BAC
:1047B00003D13B6B1B6C002B01D1012300E00023D4
:1047C000002B0AD14FF0500383F31188BFF36F8F92
:1047D000BFF34F8F3B6200BFFEE73B68022B03D164
:1047E0003B6BDB6B012B01D1012300E00023002B8D
:1047F0000AD14FF0500383F31188BFF36F8FBFF3DB
:104800004F8FFB6100BFFEE703F09EFB0346002BCA
:1048100002D17B68002B01D1012300E00023002B93
:104820000AD14FF0500383F31188BFF36F8FBFF3AA
:104830004F8FBB6100BFFEE704F004FA3B6B9A6B3D
:104840003B6BDB6B9A4202D33B68022B46D13B6B3E
:104850009B6BFB623A68B968386B00F064FEB86223
:104860003B6B9B6C002B15D03B68022B02D1FB6A83
:10487000002B2FD13968386B01F0AFF80346002BBD
:1048800028D04A4B4FF080521A60BFF34F8FBFF3CE
:104890006F8F1FE03B6B5B6A002B10D03B6B2433A8
:1048A000184603F021F80346002B13D03F4B4FF07E
:1048B00080521A60BFF34F8FBFF36F8F0AE0BB6A5D
:1048C000002B07D0394B4FF080521A60BFF34F8F47
:1048D000BFF36F8F04F0E6F9012363E07B68002BE0
:1048E00003D104F0DFF900235CE07B6B002B06D1E1
:1048F00007F11003184603F0E1F801237B6304F08D
:10490000D1F902F0F3FC04F09DF93B6B93F84430CD
:104910005BB2B3F1FF3F03D13B6B002283F844202D
:104920003B6B93F845305BB2B3F1FF3F03D13B6B78
:10493000002283F8452004F0B5F93A1D07F1100371
:104940001146184603F0D0F80346002B24D1386BEB
:1049500000F013FF0346002B18D03B6B10337A682E
:104960001146184602F060FF386B00F06CFE02F052
:10497000CBFC0346002B7FF45FAF0C4B4FF0805213
:104980001A60BFF34F8FBFF36F8F55E7386B00F09E
:104990005AFE02F0B9FC4FE7386B00F054FE02F00B
:1049A000B3FC002318463837BD4680BD04ED00E057
:1049B00080B58EB000AFF860B9607A603B60FB688C
:1049C0003B633B6B002B0AD14FF0500383F31188FC
:1049D000BFF36F8FBFF34F8F7B6200BFFEE7BB68F3
:1049E000002B03D13B6B1B6C002B01D1012300E09A
:1049F0000023002B0AD14FF0500383F31188BFF33B
:104A00006F8FBFF34F8F3B6200BFFEE73B68022B07
:104A100003D13B6BDB6B012B01D1012300E00023B1
:104A2000002B0AD14FF0500383F31188BFF36F8F2F
:104A3000BFF34F8FFB6100BFFEE704F0E3F9EFF334
:104A400011824FF0500383F31188BFF36F8FBFF3D0
:104A50004F8FBA617B61BB69FB623B6B9A6B3B6BAF
:104A6000DB6B9A4202D33B68022B3ED13B6B93F83F
:104A7000453087F82B303A68B968386B00F053FD41
:104A800097F92B30B3F1FF3F24D13B6B9B6C002B8C
:104A90000DD03968386B00F0A0FF0346002B21D001
:104AA0007B68002B1ED07B6801221A601AE03B6BEA
:104AB0005B6A002B16D03B6B2433184602F014FFC0
:104AC0000346002B0ED07B68002B0BD07B680122A5
:104AD0001A6007E097F82B300133DBB25AB23B6B18
:104AE00083F8452001237B6301E000237B63FB6A9D
:104AF0003B613B6983F3118800BF7B6B18463837F5
:104B0000BD4680BD80B58EB000AF786039607B68EF
:104B10003B633B6B002B0AD14FF0500383F31188AA
:104B2000BFF36F8FBFF34F8F3B6200BFFEE73B6B5E
:104B30001B6C002B0AD04FF0500383F31188BFF396
:104B40006F8FBFF34F8FFB6100BFFEE73B6B1B68AE
:104B5000002B03D13B6B9B68002B01D1012300E0AC
:104B60000023002B0AD14FF0500383F31188BFF3C9
:104B70006F8FBFF34F8FBB6100BFFEE704F042F9B8
:104B8000EFF311824FF0500383F31188BFF36F8F5F
:104B9000BFF34F8F7A613B617B69FB623B6B9B6B21
:104BA000BB623B6BDB6BBA6A9A423DD23B6B93F8BC
:104BB000453087F82730BB6A5A1C3B6B9A6397F9DC
:104BC0002730B3F1FF3F24D13B6B9B6C002B0DD002
:104BD0000021386B00F001FF0346002B21D03B6819
:104BE000002B1ED03B6801221A601AE03B6B5B6A07
:104BF000002B16D03B6B2433184602F075FE03469B
:104C0000002B0ED03B68002B0BD03B6801221A60B2
:104C100007E097F827300133DBB25AB23B6B83F8D9
:104C2000452001237B6301E000237B63FB6AFB607B
:104C3000FB6883F3118800BF7B6B18463837BD468D
:104C400080BD80B58CB000AFF860B9607A60002399
:104C5000FB62FB68BB62BB6A002B0AD14FF05003BA
:104C600083F31188BFF36F8FBFF34F8F3B6200BF99
:104C7000FEE7BB68002B03D1BB6A1B6C002B01D184
:104C8000012300E00023002B0AD14FF0500383F3EF
:104C90001188BFF36F8FBFF34F8FFB6100BFFEE73B
:104CA00003F052F90346002B02D17B68002B01D19F
:104CB000012300E00023002B0AD14FF0500383F3BF
:104CC0001188BFF36F8FBFF34F8FBB6100BFFEE74B
:104CD00003F0B8FFBB6A9B6B7B627B6A002B1FD023
:104CE000B968B86A00F089FC7B6A5A1EBB6A9A638D
:104CF000BB6A1B69002B0FD0BB6A1033184602F049
:104D0000F3FD0346002B07D03C4B4FF080521A6056
:104D1000BFF34F8FBFF36F8F03F0C4FF012369E030
:104D20007B68002B03D103F0BDFF002362E0FB6A28
:104D3000002B06D107F11003184602F0BFFE012335
:104D4000FB6203F0AFFF02F0D1FA03F07BFFBB6A16
:104D500093F844305BB2B3F1FF3F03D1BB6A00224A
:104D600083F84420BB6A93F845305BB2B3F1FF3F50
:104D700003D1BB6A002283F8452003F093FF3A1D5C
:104D800007F110031146184602F0AEFE0346002B51
:104D900023D1B86A00F0B7FC0346002B17D0BB6ADA
:104DA00024337A681146184602F03EFDB86A00F0D6
:104DB0004AFC02F0A9FA0346002B89D10F4B4FF0B1
:104DC00080521A60BFF34F8FBFF36F8F80E7B86ACE
:104DD00000F039FC02F098FA7AE7B86A00F033FC88
:104DE00002F092FAB86A00F08EFC0346002B3FF402
:104DF0006FAF002318463037BD4680BD04ED00E09C
:104E000080B58EB000AF7860396000237B637B682B
:104E1000FB6200233B63FB6A002B0AD14FF0500377
:104E200083F31188BFF36F8FBFF34F8F3B6200BFD7
:104E3000FEE7FB6A1B6C002B0AD04FF0500383F394
:104E40001188BFF36F8FBFF34F8FFB6100BFFEE789
:104E500003F07AF80346002B02D13B68002B01D106
:104E6000012300E00023002B0AD14FF0500383F30D
:104E70001188BFF36F8FBFF34F8FBB6100BFFEE799
:104E800003F0E0FEFB6A9B6BBB62BB6A002B24D085
:104E9000BB6A5A1EFB6A9A63FB6A1B68002B04D12B
:104EA00003F028FA0246FB6A9A60FB6A1B69002B32
:104EB0000FD0FB6A1033184602F016FD0346002B94
:104EC00007D0544B4FF080521A60BFF34F8FBFF39F
:104ED0006F8F03F0E7FE012397E03B68002B11D1B1
:104EE0003B6B002B0AD04FF0500383F31188BFF3C4
:104EF0006F8FBFF34F8F7B6100BFFEE703F0D2FEE1
:104F0000002382E07B6B002B06D107F10C031846CF
:104F100002F0D4FD01237B6303F0C4FE02F0E6F946
:104F200003F090FEFB6A93F844305BB2B3F1FF3FAD
:104F300003D1FB6A002283F84420FB6A93F84530D2
:104F40005BB2B3F1FF3F03D1FB6A002283F8452037
:104F500003F0A8FE3A4607F10C031146184602F08A
:104F6000C3FD0346002B32D1F86A00F0CCFB0346A8
:104F7000002B26D0FB6A1B68002B09D103F062FED0
:104F8000FB6A9B68184602F0FDFF386303F08AFE57
:104F9000FB6A24333A681146184602F045FCF86A69
:104FA00000F051FB02F0B0F90346002B7FF468AF2C
:104FB000184B4FF080521A60BFF34F8FBFF36F8FC3
:104FC0005EE7F86A00F03FFB02F09EF958E7F86AE6
:104FD00000F039FB02F098F9F86A00F094FB034600
:104FE000002B3FF44DAF3B6B002B0DD003F02AFE9E
:104FF000F86A00F080FA7862FB6A9B68796A184662
:1050000003F0C6F803F04EFE002318463837BD46BD
:1050100080BD00BF04ED00E080B58EB000AFF86049
:10502000B9607A6000237B63FB683B633B6B002BBA
:105030000AD14FF0500383F31188BFF36F8FBFF392
:105040004F8F7B6200BFFEE7BB68002B03D13B6B39
:105050001B6C002B01D1012300E00023002B0AD19F
:105060004FF0500383F31188BFF36F8FBFF34F8F5F
:105070003B6200BFFEE702F067FF0346002B02D150
:105080007B68002B01D1012300E00023002B0AD113
:105090004FF0500383F31188BFF36F8FBFF34F8F2F
:1050A000FB6100BFFEE703F0CDFD3B6B9B6BFB623A
:1050B000FB6A002B21D03B6BDB68BB62B968386BA5
:1050C00000F09BFA3B6BBA6ADA603B6B5B6A002BC1
:1050D0000FD03B6B2433184602F006FC0346002B2E
:1050E00007D03D4B4FF080521A60BFF34F8FBFF394
:1050F0006F8F03F0D7FD012369E07B68002B03D19C
:1051000003F0D0FD002362E07B6B002B06D107F19A
:105110001403184602F0D2FC01237B6303F0C2FDA6
:1051200002F0E4F803F08EFD3B6B93F844305BB281
:10513000B3F1FF3F03D13B6B002283F844203B6B6C
:1051400093F845305BB2B3F1FF3F03D13B6B0022D4
:1051500083F8452003F0A6FD3A1D07F1140311461C
:10516000184602F0C1FC0346002B23D1386B00F037
:10517000CAFA0346002B17D03B6B24337A681146DA
:10518000184602F051FB386B00F05DFA02F0BCF8F3
:105190000346002B87D1104B4FF080521A60BFF3AB
:1051A0004F8FBFF36F8F7EE7386B00F04CFA02F041
:1051B000ABF878E7386B00F046FA02F0A5F8386BE8
:1051C00000F0A1FA0346002B3FF46DAF0023184610
:1051D0003837BD4680BD00BF04ED00E080B58EB01D
:1051E00000AFF860B9607A60FB683B633B6B002BF3
:1051F0000AD14FF0500383F31188BFF36F8FBFF3D1
:105200004F8F3B6200BFFEE7BB68002B03D13B6BB7
:105210001B6C002B01D1012300E00023002B0AD1DD
:105220004FF0500383F31188BFF36F8FBFF34F8F9D
:10523000FB6100BFFEE703F0E5FDEFF311824FF0E5
:10524000500383F31188BFF36F8FBFF34F8FBA61A1
:105250007B61BB69FB623B6B9B6BBB62BB6A002BD8
:105260002FD03B6B93F8443087F82730B968386B00
:1052700000F0C3F9BB6A5A1E3B6B9A6397F927305B
:10528000B3F1FF3F12D13B6B1B69002B16D03B6B78
:105290001033184602F028FB0346002B0ED07B6823
:1052A000002B0BD07B6801221A6007E097F82730AB
:1052B0000133DBB25AB23B6B83F8442001237B639A
:1052C00001E000237B63FB6A3B613B6983F3118848
:1052D00000BF7B6B18463837BD4680BD80B58CB0AB
:1052E00000AF786039607B68BB62BB6A002B0AD173
:1052F0004FF0500383F31188BFF36F8FBFF34F8FCD
:10530000FB6100BFFEE73B68002B03D1BB6A1B6C4F
:10531000002B01D1012300E00023002B0AD14FF024
:10532000500383F31188BFF36F8FBFF34F8FBB61BF
:1053300000BFFEE7BB6A1B6C002B0AD14FF0500385
:1053400083F31188BFF36F8FBFF34F8F7B6100BF73
:10535000FEE703F057FDEFF311824FF0500383F3A4
:105360001188BFF36F8FBFF34F8F3A61FB603B69CA
:105370007B62BB6A9B6B002B0CD0BB6ADB683B6219
:105380003968B86A00F039F9BB6A3A6ADA60012311
:10539000FB6201E00023FB627B6ABB60BB6883F3B6
:1053A000118800BFFB6A18463037BD4680BD80B506
:1053B00084B000AF78607B68002B0AD14FF05003B7
:1053C00083F31188BFF36F8FBFF34F8FBB6000BFB4
:1053D000FEE703F037FC7B689B6BFB6003F062FC2D
:1053E000FB6818461037BD4680BD80B586B000AF5B
:1053F00078607B687B617B69002B0AD14FF050039A
:1054000083F31188BFF36F8FBFF34F8FFB6000BF33
:10541000FEE703F017FC7B69DA6B7B699B6BD31AA1
:105420003B6103F03FFC3B6918461837BD4680BD21
:1054300080B487B000AF78607B687B617B69002BAC
:105440000AD14FF0500383F31188BFF36F8FBFF37E
:105450004F8FFB6000BFFEE77B699B6B3B613B6945
:1054600018461C37BD465DF8047B704780B584B094
:1054700000AF78607B68FB60FB68002B0AD14FF0BF
:10548000500383F31188BFF36F8FBFF34F8FBB605F
:1054900000BFFEE7F86800F0FDF9F868FBF716F8C2
:1054A00000BF1037BD4680BD80B483B000AF7860C8
:1054B0007B68DB6C18460C37BD465DF8047B704793
:1054C00080B483B000AF786039607B683A68DA6492
:1054D00000BF0C37BD465DF8047B704780B483B0D5
:1054E00000AF78607B6893F8503018460C37BD46A3
:1054F0005DF8047B704780B485B000AF78607B684E
:105500005B6A002B06D07B681B6B1B68C3F107032B
:10551000FB6001E00023FB60FB6818461437BD46C2
:105520005DF8047B704780B586B000AFF860B96065
:105530007A6000237B61FB689B6B3B61FB681B6CA3
:10554000002B0DD1FB681B68002B4DD1FB689B68BD
:10555000184602F097FD7861FB6800229A6043E0EC
:105560007B68002B19D1FB685868FB681B6C1A46D6
:10557000B96827F0CDFAFB685A68FB681B6C1A44BF
:10558000FB685A60FB685A68FB689B689A422BD399
:10559000FB681A68FB685A6026E0FB68D868FB68FD
:1055A0001B6C1A46B96827F0B3FAFB68DA68FB6827
:1055B0001B6C5B421A44FB68DA60FB68DA68FB68C4
:1055C0001B689A4207D2FB689A68FB681B6C5B42B7
:1055D0001A44FB68DA607B68022B05D13B69002B1B
:1055E00002D03B69013B3B613B695A1CFB689A63F3
:1055F0007B6918461837BD4680BD80B582B000AFC4
:10560000786039607B681B6C002B18D07B68DA6887
:105610007B681B6C1A447B68DA607B68DA687B689D
:105620009B689A4203D37B681A687B68DA607B6860
:10563000D9687B681B6C1A46386827F069FA00BF86
:105640000837BD4680BD80B584B000AF786003F0F8
:10565000F9FA7B6893F84530FB731FE07B689B6C1D
:10566000002B09D00021786800F0B7F90346002B21
:1056700010D002F09BFA0DE07B685B6A002B12D021
:105680007B682433184602F02FF90346002B01D023
:1056900002F08CFAFB7B013BDBB2FB7397F90F3016
:1056A000002BDBDC00E000BF7B68FF2283F8452095
:1056B00003F0F8FA03F0C6FA7B6893F84430BB7342
:1056C00011E07B681B69002B12D07B6810331846F1
:1056D00002F00AF90346002B01D002F067FABB7B07
:1056E000013BDBB2BB7397F90E30002BE9DC00E025
:1056F00000BF7B68FF2283F8442003F0D3FA00BF89
:105700001037BD4680BD80B584B000AF786003F02F
:1057100099FA7B689B6B002B02D10123FB6001E0AF
:105720000023FB6003F0BEFAFB6818461037BD4645
:1057300080BD80B487B000AF78607B683B613B6917
:10574000002B0AD14FF0500383F31188BFF36F8F02
:10575000BFF34F8FFB6000BFFEE73B699B6B002BE5
:1057600002D101237B6101E000237B617B69184644
:105770001C37BD465DF8047B704780B584B000AF30
:10578000786003F05FFA7B689A6B7B68DB6B9A4208
:1057900002D10123FB6001E00023FB6003F082FAE9
:1057A000FB6818461037BD4680BD80B487B000AF97
:1057B00078607B683B613B69002B0AD14FF0500356
:1057C00083F31188BFF36F8FBFF34F8FFB6000BF70
:1057D000FEE73B699A6B3B69DB6B9A4202D101237E
:1057E0007B6101E000237B617B6918461C37BD4665
:1057F0005DF8047B704780B485B000AF7860396095
:105800000023FB6014E00F4AFB6852F83330002B92
:105810000BD10C49FB683A6841F83320094AFB6810
:10582000DB0013447A685A6006E0FB680133FB60D2
:10583000FB68072BE7D900BF00BF1437BD465DF8F2
:10584000047B70479CF0002080B485B000AF786086
:105850000023BB600023FB6010E00D4AFB68DB0007
:1058600013445B687A689A4205D1094AFB6852F88A
:105870003330BB6005E0FB680133FB60FB68072B3E
:10588000EBD9BB6818461437BD465DF8047B7047FA
:105890009CF0002080B485B000AF78600023FB60EE
:1058A00016E0104AFB68DB0013445B687A689A4292
:1058B0000BD10C4AFB68002142F83310094AFB68FF
:1058C000DB00134400225A6006E0FB680133FB60F2
:1058D000FB68072BE5D900BF00BF1437BD465DF854
:1058E000047B70479CF0002080B584B000AF7860E6
:1058F000002204217868FEF70FFEF860FB68184666
:105900001037BD4680BD80B584B000AF7860396087
:1059100003F098F97B689B6C002B02D00023FB609E
:105920000BE07B689B6B002B02D00023FB6004E044
:105930007B683A689A640123FB6003F0B3F9FB6863
:1059400018461037BD4680BD80B584B000AF786082
:1059500039607B68BB60BB689B6C3A689A4202D036
:105960000023FB600FE0BB689B6B002B02D0002381
:10597000FB6008E003F066F9BB6800229A6403F05C
:1059800091F90123FB60FB6818461037BD4680BDC6
:1059900080B584B000AF786039600023FB6007F108
:1059A0000C033A6819467868FFF74BF9FB6818460C
:1059B0001037BD4680BD80B584B000AF786000234D
:1059C000FB6007F10C03002219467868FFF706FC1C
:1059D000FB6818461037BD4680BD80B588B000AF63
:1059E000786039607B689B6CBB610023FB61BB699D
:1059F000002B0AD14FF0500383F31188BFF36F8F50
:105A0000BFF34F8F3B6100BFFEE7BB699A6BBB6979
:105A1000DB6B9A420AD34FF0500383F31188BFF334
:105A20006F8FBFF34F8FFB6000BFFEE7BB699A6BC0
:105A3000BB69DB6B9A4225D2BB6993F84530FB7595
:105A40003B1D3A681946B869FFF76DFDF86197F993
:105A50001730B3F1FF3F0ED1BB695B6A002B11D049
:105A6000BB692433184601F03FFF0346002B09D0E1
:105A70000123FB6106E0FB7D0133DBB25AB2BB6957
:105A800083F84520FB6918462037BD4680BD00BF1E
:105A900080B58CB002AFF860B9607A607B68012B8A
:105AA00010D1012387F82730FB68042B1BD84FF057
:105AB000500383F31188BFF36F8FBFF34F8FFB61E8
:105AC00000BFFEE7002387F82730FB68002B0AD1D0
:105AD0004FF0500383F31188BFF36F8FBFF34F8FE5
:105AE000BB6100BFFEE7BA68FB689A420AD94FF073
